:020000040800F2
:100000000020002001010008DF000008DF000008D8
:10001000DF000008DF000008DF000008000000002B
:10002000000000000000000000000000DF000008E9
:10003000DF00000800000000DF000008DF0000080B
:10004000002105E0521C42F210739A42FADB491C6F
:10005000814201DA0022F6E7704780B501212020B5
:1000600000F01CF80B485FF055310160002002BD24
:1000700080B5FFF7F2FF084840F20111016032201D
:10008000FFF7DEFF044841F2020101603220FFF772
:10009000D7FFF0E70014024014140240C9B200294F
:1000A00005D00649096808430449086005E003498A
:1000B000096831EA000001490860704730380240A1
:1000C00000F009F8002801D0C046C0460020FFF724
:1000D000CFFF00F002F80120704700F001B8FEE702
:1000E0000746384600F002F8FBE7000080B5C0463E
:1000F000C046024A11001820ABBEFBE726000200F2
:0C010000C046C046C046C046FFF7DAFF0C
:0400000508000101ED
:00000001FF
