:020000040800F2
:100000000020002015010008F3000008F30000089C
:10001000F3000008F3000008F300000800000000EF
:10002000000000000000000000000000F3000008D5
:10003000F300000800000000F3000008F3000008CF
:10004000002105E0521C42F210739A42FADB491C6F
:10005000814201DA0022F6E7704780B501212020B5
:1000600000F026F8104855210160002002BD80B53F
:10007000FFF7F3FF0D48012101603220FFF7E0FF99
:100080000A48022101603220FFF7DAFF0748042105
:1000900001603220FFF7D4FF0448082101603220BC
:1000A000FFF7CEFFE6E70000001402401414024000
:1000B000C9B2002905D00649096808430449086007
:1000C00005E00349096831EA00000149086070470A
:1000D0003038024000F009F8002801D0C046C04680
:1000E0000020FFF7C4FF00F002F80120704700F085
:1000F00001B8FEE70746384600F002F8FBE70000CB
:1001000080B5C046C046024A11001820ABBEFBE7CE
:1001100026000200C046C046C046C046FFF7DAFFD0
:0400000508000115D9
:00000001FF
