:020000040800F2
:1000000000200020E9000008C7000008C700000821
:10001000C7000008C7000008C70000080000000073
:10002000000000000000000000000000C700000801
:10003000C700000800000000C7000008C700000853
:1000400080B50121202000F01DF80121402000F0A2
:1000500019F8084855210160074800210160002077
:1000600002BD80B5FFF7ECFF044805490968C943A4
:100070000160F9E700140240001802401414024025
:1000800010180240C9B2002905D006490968084382
:100090000449086005E00349096831EA00000149A4
:1000A000086070473038024000F009F8002801D09D
:1000B000C046C0460020FFF7D4FF00F002F8012040
:1000C000704700F001B8FEE70746384600F002F836
:1000D000FBE7000080B5C046C046024A1100182068
:1000E000ABBEFBE726000200C046C046C046C04685
:0400F000FFF7DAFF3D
:04000005080000E906
:00000001FF
