:020000040800F2
:1000000000200020D1000008AF000008AF00000869
:10001000AF000008AF000008AF00000800000000BB
:10002000000000000000000000000000AF00000819
:10003000AF00000800000000AF000008AF0000089B
:1000400080B50121202000F011F8064855210160FB
:10005000002002BD80B5FFF7F3FF03480F210160C8
:1000600001BD00000014024014140240C9B200296E
:1000700005D00649096808430449086005E00349BA
:10008000096831EA000001490860704730380240D1
:1000900000F009F8002801D0C046C0460020FFF754
:1000A000D9FF00F002F80120704700F001B8FEE728
:1000B0000746384600F002F8FBE7000080B5C0466E
:1000C000C046024A11001820ABBEFBE72600020022
:0C00D000C046C046C046C046FFF7DAFF3D
:04000005080000D11E
:00000001FF
