:020000040800F2
:1000000000200020410100081F0100081F01000816
:100010001F0100081F0100081F0100080000000068
:100020000000000000000000000000001F010008A8
:100030001F010008000000001F0100081F01000848
:10004000002105E0521C42F210739A42FADB491C6F
:10005000814201DA0022F6E7704780B501212020B5
:1000600000F03CF819485521016019480021016051
:10007000002002BD80B5FFF7F0FF16480068102889
:1000800005D11548012101603220FFF7D9FF114841
:100090000068202805D11048022101603220FFF7B6
:1000A000CFFF0C480068402805D10B4804210160AF
:1000B0003220FFF7C5FF074800688028DDD10648D9
:1000C000082101603220FFF7BBFFD6E70014024091
:1000D000001802401014024014140240C9B2002952
:1000E00005D00649096808430449086005E003494A
:1000F000096831EA00000149086070473038024061
:1001000000F009F8002801D0C046C0460020FFF7E3
:10011000B1FF00F002F80120704700F001B8FEE7DF
:100120000746384600F002F8FBE7000080B5C046FD
:10013000C046024A11001820ABBEFBE726000200B1
:0C014000C046C046C046C046FFF7DAFFCC
:0400000508000141AD
:00000001FF
