:020000040800F2
:1000000000200020FD000008DB000008DB000008E5
:10001000DB000008DB000008DB0000080000000037
:10002000000000000000000000000000DB000008ED
:10003000DB00000800000000DB000008DB00000817
:10004000002105E0521C42F210739A42FADB491C6F
:10005000814201DA0022F6E7704780B501212020B5
:1000600000F01AF80A4855210160002002BD80B551
:10007000FFF7F3FF07480F2101603220FFF7E0FF91
:100080000448002101603220FFF7DAFFF2E70000A8
:100090000014024014140240C9B2002905D00649D8
:1000A000096808430449086005E00349096831EA22
:1000B00000000149086070473038024000F009F83C
:1000C000002801D0C046C0460020FFF7D0FF00F056
:1000D00002F80120704700F001B8FEE707463846F5
:1000E00000F002F8FBE7000080B5C046C046024AB7
:1000F00011001820ABBEFBE726000200C046C04638
:08010000C046C046FFF7DAFF1C
:04000005080000FDF2
:00000001FF
